:100000000C9462000C948A000C948A000C948A0070
:100010000C948A000C948A000C948A000C948A0038
:100020000C948A000C948A000C948A000C948A0028
:100030000C948A000C948A000C948A000C948A0018
:100040000C9429040C948A000C9499040C94730465
:100050000C948A000C948A000C948A000C948A00F8
:100060000C948A000C948A000000000024002700F1
:100070002A0000000000250028002B0000000000DE
:1000800023002600290004040404040404040202DA
:100090000202020203030303030301020408102007
:1000A0004080010204081020010204081020000012
:1000B0000008000201000003040700000000000027
:1000C0000000CB0411241FBECFEFD8E0DEBFCDBFB0
:1000D00011E0A0E0B1E0EAE5F3E102C005900D9285
:1000E000A238B107D9F722E0A2E8B1E001C01D9221
:1000F000A833B207E1F710E0C2E6D0E004C02197D0
:10010000FE010E947308C136D107C9F70E94270576
:100110000C94AB090C940000833081F028F48130FA
:1001200099F08230A1F008958730A9F08830B9F0B5
:100130008430D1F4809180008F7D03C08091800055
:100140008F7780938000089584B58F7702C084B53F
:100150008F7D84BD08958091B0008F7703C080911A
:10016000B0008F7D8093B0000895CF93DF93282F48
:1001700030E0F901E255FF4F8491F901E656FF4F57
:10018000D491F901EA57FF4FC491CC2391F081112A
:100190000E948C00EC2FF0E0EE0FFF1FE458FF4FA1
:1001A000A591B491EC91ED2381E090E021F480E001
:1001B00002C080E090E0DF91CF9108951F93CF932C
:1001C000DF93282F30E0F901E255FF4F8491F901C8
:1001D000E656FF4FD491F901EA57FF4FC491CC2363
:1001E000C9F0162F81110E948C00EC2FF0E0EE0F69
:1001F000FF1FEE58FF4FA591B4918FB7F8941111DE
:1002000005C09C91ED2FE095E92302C0EC91ED2B08
:10021000EC938FBFDF91CF911F910895CF93DF9320
:1002200090E0FC01E656FF4F2491FC01EA57FF4F96
:100230008491882361F190E0880F991FFC01E859AF
:10024000FF4FC591D491FC01EE58FF4FA591B49199
:10025000611109C09FB7F894888120958223888313
:10026000EC912E230BC0623061F49FB7F894388173
:10027000822F809583238883EC912E2B2C939FBF14
:1002800006C08FB7F894E8812E2B28838FBFDF91AB
:10029000CF9108951F93CF93DF93182FEB0161E067
:1002A0000E940E01209711F460E004C0CF3FD105F9
:1002B00039F461E0812FDF91CF911F910C94DE0022
:1002C000E12FF0E0E255FF4FE491E330F9F048F41C
:1002D000E130B9F0E230A1F584B5806284BDC8BDDB
:1002E00034C0E730E9F0E83019F1E43049F58091A5
:1002F0008000806280938000D0938B00C0938A003E
:1003000024C084B5806884BDC7BD1FC080918000B3
:10031000806880938000D0938900C093880015C0C6
:100320008091B00080688093B000C093B3000DC08E
:100330008091B00080628093B000C093B40005C08B
:10034000C038D1050CF0B5CFAFCFDF91CF911F9161
:1003500008958E3008F08E508770806480937C0002
:1003600080917A00806480937A0080917A0086FD83
:10037000FCCF809178002091790090E0922B089535
:100380003FB7F8948091910190919201A0919301CF
:10039000B091940126B5A89B05C02F3F19F0019696
:1003A000A11DB11D3FBFBA2FA92F982F8827820FFB
:1003B000911DA11DB11DBC01CD0142E0660F771F4B
:1003C000881F991F4A95D1F70895CF92DF92EF9237
:1003D000FF920F931F93CF93DF936C017A018B01F0
:1003E000C0E0D0E0CE15DF0589F0D8016D918D0118
:1003F000D601ED91FC910190F081E02DC6010995A7
:10040000892B11F47E0102C02196ECCFC701DF9148
:10041000CF911F910F91FF90EF90DF90CF900895B3
:10042000089580E090E00895FC01538D448D252FC0
:1004300030E0842F90E0821B930B541710F0CF967E
:10044000089501970895FC01918D828D981761F0B0
:10045000828DDF01A80FB11D5D968C91928D9F5FFB
:100460009F73928F90E008958FEF9FEF0895FC01A6
:10047000918D828D981731F0828DE80FF11D858D59
:1004800090E008958FEF9FEF0895FC01918D228DEC
:10049000892F90E0805C9F4F821B91098F73992771
:1004A000089585E991E00E94450221E0892B09F435
:1004B00020E0822F0895FC01848DDF01A80FB11D7B
:1004C000A35ABF4F2C91848D90E001968F7399278A
:1004D000848FA689B7892C93A089B1898C91806477
:1004E0008C93938D848D981306C00288F389E02D38
:1004F00080818F7D80830895EF92FF920F931F93E9
:10050000CF93DF93EC0181E0888F9B8D8C8D9813C6
:1005100005C0E889F989808185FD24C0F62E0B8D00
:1005200010E00F5F1F4F0F731127E02E8C8DE81224
:100530000CC00FB607FCFACFE889F989808185FFE6
:10054000F5CFCE010E945B02F1CF8B8DFE01E80F4B
:10055000F11DE35AFF4FF0820B8FEA89FB898081FE
:10056000806207C0EE89FF896083E889F98980810C
:100570008064808381E090E0DF91CF911F910F91A3
:10058000FF90EF900895CF93DF93EC01888D88233F
:10059000C9F0EA89FB89808185FD05C0A889B989F0
:1005A0008C9186FD0FC00FB607FCF5CF808185FFCB
:1005B000F2CFA889B9898C9185FFEDCFCE010E9439
:1005C0005B02E7CFDF91CF91089580E090E0892B27
:1005D00029F00E94510281110C94000008958F921D
:1005E0009F92AF92BF92CF92DF92EF92FF920F93C2
:1005F0001F93CF93DF9300E210E0C0E0D0E05B01F7
:10060000AA0CBB1CA80EB91EF50184850E94A90185
:10061000C80FD91F01501109B9F7F501C688D7884D
:100620000D2C000CEE08FF0880A091A0092C000CF6
:10063000AA08BB089E01D7FF02C0215E3F4F85E09C
:10064000359527958A95E1F7C901330FAA0BBB0BA6
:100650009C01AD01281939094A095B09A4E6B0E0FB
:100660000E943708A7019601281939094A095B0930
:100670000E941808C901DF91CF911F910F91FF903F
:10068000EF90DF90CF90BF90AF909F908F900895A4
:10069000CF93DF93EC0160E08A850E94DE0060E08A
:1006A0008E810E94DE0060E08885DF91CF910C94FE
:1006B000DE000F931F93CF93DF93EC018B0161E07A
:1006C0008A850E94DE0060E08E810E94DE00B80113
:1006D0008885DF91CF911F910F910C944A010F9360
:1006E0001F93CF93DF93EC018B0161E088810E941F
:1006F000DE0060E08A810E94DE00B8018C81DF911B
:10070000CF911F910F910C944A01009769F0FC0161
:1007100001900020E9F73197AF01481B590BBC014C
:1007200085E991E00C94E50180E090E00895CF9395
:10073000DF930E948503EC0188E191E00E9485032C
:100740008C0F9D1FDF91CF9108958F929F92AF9252
:10075000BF92CF92DF92EF92FF920F931F93CF93AE
:10076000DF93CDB7DEB7A1970FB6F894DEBF0FBE0B
:10077000CDBF6C01990FEE08FF08F7FE31C0E09184
:100780009501F09196010190F081E02D6DE285E9EF
:1007900091E009958C0122273327A9012C193D09E5
:1007A0004E095F0919A2CE0181967C019AE0892E3B
:1007B000912CA12CB12CCA01B901A50194010E9470
:1007C0004208605DF70162937F0121153105410503
:1007D000510589F7CF010E948503080F191F1EC01C
:1007E000A701960119A28E010F5D1F4F8AE0C82E46
:1007F000D12CE12CF12CCA01B901A70196010E946C
:100800004208605DF80162938F01211531054105B1
:10081000510589F7CF010E9485038C0188E191E0A1
:100820000E948503800F911FA1960FB6F894DEBF3A
:100830000FBECDBFDF91CF911F910F91FF90EF9031
:10084000DF90CF90BF90AF909F908F9008950E94BF
:10085000A6091F920F920FB60F9211242F933F9368
:100860008F939F93AF93BF9380918D0190918E0151
:10087000A0918F01B091900130918C0123E0230F62
:100880002D3720F40196A11DB11D05C026E8230FC8
:100890000296A11DB11D20938C0180938D01909330
:1008A0008E01A0938F01B09390018091910190915E
:1008B0009201A0919301B09194010196A11DB11DE7
:1008C0008093910190939201A0939301B09394012E
:1008D000BF91AF919F918F913F912F910F900FBE3C
:1008E0000F901F9018951F920F920FB60F92112420
:1008F0002F933F934F935F936F937F938F939F9328
:10090000AF93BF93EF93FF9385E991E00E945B0261
:10091000FF91EF91BF91AF919F918F917F916F91D7
:100920005F914F913F912F910F900FBE0F901F90AD
:1009300018951F920F920FB60F9211242F938F9339
:100940009F93EF93FF93E091A501F091A601808121
:10095000E091AB01F091AC0182FD12C090818091D9
:10096000AE018F5F8F732091AF01821751F0E0913C
:10097000AE01F0E0EB56FE4F958F8093AE0101C0C3
:100980008081FF91EF919F918F912F910F900FBEDA
:100990000F901F901895E5E9F1E01382128288EE1E
:1009A00093E0A0E0B0E084839583A683B7838AE0D8
:1009B00091E09183808385EC90E09587848784EC37
:1009C00090E09787868780EC90E0918B808B81EC1C
:1009D00090E0938B828B82EC90E0958B848B86ECFD
:1009E00090E0978B868B118E128E138E148E8AE276
:1009F00090E00E947908FC018BE090E09183808375
:100A00008AE090E09383828386E090E095838483FC
:100A100085E090E09783868383E090E091878087EC
:100A200022E030E0338722871586148641E050E0CB
:100A300057874687318B208B938B828B84E090E0A5
:100A4000958B848BF0933302E09332020895CF9319
:100A5000DF93CDB7DEB765970FB6F894DEBF0FBE54
:100A6000CDBF789484B5826084BD84B5816084BD37
:100A700085B5826085BD85B5816085BD80916E003C
:100A8000816080936E00109281008091810082606D
:100A900080938100809181008160809381008091AA
:100AA00080008160809380008091B1008460809399
:100AB000B1008091B00081608093B00080917A0095
:100AC000846080937A0080917A00826080937A00BB
:100AD00080917A00816080937A0080917A008068AA
:100AE00080937A001092C100E091A501F091A601D7
:100AF00082E08083E091A101F091A2011082E09157
:100B0000A301F091A4018FEC80831092AD01E091DC
:100B1000A901F091AA0186E08083E091A701F091FC
:100B2000A801808180618083E091A701F091A801F4
:100B3000808188608083E091A701F091A801808185
:100B400080688083E091A701F091A80180818F7D6A
:100B5000808381E090E090938B0180938A0160E034
:100B60008CE00E940E01009132021091330261E08C
:100B7000D8018C910E940E0161E0F80182810E94EF
:100B80000E0161E0D80114968C910E940E0161E083
:100B9000F80186810E940E0161E0D80118968C91BF
:100BA0000E940E0161E0F80182850E940E018BE136
:100BB00091E00E949703D12C8CE00E94B500892B14
:100BC00019F0DD24D394F8CFDD20B1F3780158017A
:100BD000FAE0AF0EB11CD70157961C921E925697A1
:100BE000812C99249394F70184850E94A901811591
:100BF000F2E09F0764F4D70156962D913C915797E8
:100C0000821793070CF4C901F701978B868BF1E0EB
:100C10008F1A910841F7D70156968D919C9157975D
:100C20000E94A503B2E0EB0EF11CEA14FB0499F656
:100C300083E491E00E949703F12C8CE00E94B500C0
:100C4000892B11F0FD2CF9CFFF20B9F37801E0E2F8
:100C5000EE0EF11C065D1F4FA12CA2E0BA2E67011B
:100C6000D701AD92BC92612C772473944701B4E113
:100C70008B1A9108F40180810E94A90118161906A7
:100C800054F4D7012D913C91281739070CF4C90170
:100C9000F70191838083F1E06F1A710859F722E020
:100CA000E20EF11CD6018D919C910E94A503E016E5
:100CB000F106A9F68BE691E00E94970300E010E0B0
:100CC0008CE00E94B500009711F08C01F9CF013043
:100CD0001105D9F7FE013B96F98BE88BCC24C39420
:100CE000D12C80918A0190918B018230910509F479
:100CF0003BC18330910509F454C1019709F095C1B6
:100D000000913202109133027801F6E1EF0EF11CEE
:100D10009E012F5F3F4F5901C80180969B8B8A8BA4
:100D2000490160E2462E512C612C712CFD8AEC8A1F
:100D30001701FAE02F1A3108F10180810E94A90100
:100D4000680E791EF1E04F1A5108B1F722E0E20E69
:100D5000F11CD70118968D919C9119971C01990F40
:100D600044085508930177FE02C0215E3F4F75E0AD
:100D7000359527957A95E1F7C901330FAA0BBB0B7F
:100D80009C01AD012219330944095509A4E6B0E0DC
:100D90000E943708EC89FD8920813181032E000CE7
:100DA000440B550B22193309440955090E941808B0
:100DB000D4012D933D934D01EA89FB89EE16FF0680
:100DC00009F0AFCFFE013B96D5012D913D915D011C
:100DD00081E0223331050CF480E081932889398940
:100DE000A216B30689F740918801509189012C859C
:100DF0008D85222329F08823B1F081E090E01EC088
:100E00009E85992329F0882389F08FEF9FEF16C0E4
:100E1000811112C04230510561F04E3F5F4F61F4C5
:100E20008DEF9FEF0BC082E090E008C08EEF9FEF48
:100E300005C083E090E002C080E090E090938901DB
:100E4000809388010097A9F054F0E12CF12C8130B7
:100E50009105A9F00297B1F061EE70E01FC08F3FDD
:100E6000AFEF9A0791F00296A1F051EEE52EF12C2A
:100E700013C044E6E42EF12C64E670E00FC06BE48E
:100E800070E00CC066E970E009C03BE4E32EF12C91
:100E900003C096E9E92EF12C60E070E09B858F8518
:100EA000992391F0882391F0222319F03E85311186
:100EB0002AC0D0928701C0928601E2E0F0E0F09370
:100EC0008B01E0938A0131C08823E9F021111BC016
:100ED0003E85311118C0992329F0D0928701C09224
:100EE000860106C023E030E030938701209386011D
:100EF000D0928501C092840182E090E090938B01B2
:100F000080938A0112C03D8531110FC0992369F089
:100F1000222359F09E85992341F0882331F0A3E0E4
:100F2000B0E0B0938B01A0938A01C80161157105EF
:100F300019F00E94590302C00E944803E114F10411
:100F400011F0B7012AC060E0F80180810E94DE0044
:100F500060E0D80112968C910E94DE0060E0F801FA
:100F600084810E94DE0061C081E080938301009152
:100F70003202109133026091860170918701C8019D
:100F80000E94EF0221E0C2970CF420E0209382013E
:100F9000C8010E94480364E670E0C8010E946F0324
:100FA00044C0009132021091330264E670E0C8013F
:100FB0000E94590364E670E0C8010E946F038D85AA
:100FC000882399F1609186017091870180913202A6
:100FD000909133020E94EF02C3973CF50E94C0013A
:100FE0002B013C0188E8882E83E1982EA12CB12C9E
:100FF0000E94C001DC01CB0184199509A609B7093B
:10100000883E9340A105B10558F0F1E08F1A910890
:10101000A108B10828EE420E23E0521E611C711C8B
:1010200081149104A104B10419F70E94E50259CE7C
:10103000052E97FB1EF400940E942F0857FD07D041
:101040000E94420807FC03D04EF40C942F085095E0
:101050004095309521953F4F4F4F5F4F08959095A4
:101060008095709561957F4F8F4F9F4F08950E9497
:101070006408A59F900DB49F900DA49F800D911DB5
:1010800011240895A1E21A2EAA1BBB1BFD010DC05D
:10109000AA1FBB1FEE1FFF1FA217B307E407F50728
:1010A00020F0A21BB30BE40BF50B661F771F881F04
:1010B000991F1A9469F760957095809590959B019A
:1010C000AC01BD01CF010895A29FB001B39FC00143
:1010D000A39F700D811D1124911DB29F700D811D64
:1010E0001124911D0895EE0FFF1F0590F491E02D3E
:1010F0000994CF93DF938230910510F482E090E061
:10110000E0913602F091370220E030E0C0E0D0E01C
:10111000309711F14081518148175907C0F04817A5
:10112000590761F482819381209719F09B838A8308
:101130002BC0909337028093360226C021153105CB
:1011400019F04217530718F49A01BE01DF01EF01AD
:101150000280F381E02DDCCF2115310509F1281B38
:10116000390B2430310590F412968D919C91139790
:101170006115710521F0FB019383828304C0909374
:10118000370280933602FD01329644C0FD01E20F22
:10119000F31F81939193225031092D933C933AC0D0
:1011A0002091340230913502232B41F42091020129
:1011B00030910301309335022093340220910001D5
:1011C000309101012115310541F42DB73EB7409111
:1011D000040150910501241B350BE0913402F0917C
:1011E0003502E217F307A0F42E1B3F0B281739072F
:1011F00078F0AC014E5F5F4F2417350748F04E0F73
:101200005F1F50933502409334028193919302C043
:10121000E0E0F0E0CF01DF91CF9108950F931F93AD
:10122000CF93DF93009709F48CC0FC0132971382AF
:10123000128200913602109137020115110581F4D6
:1012400020813181820F931F209134023091350229
:101250002817390779F5F0933502E093340271C00D
:10126000D80140E050E0AE17BF0750F412962D9120
:101270003C911397AD012115310509F1D901F3CF47
:101280009D01DA013383228360817181860F971F6C
:101290008217930769F4EC0128813981260F371FE3
:1012A0002E5F3F4F318320838A819B81938382838A
:1012B000452B29F4F0933702E093360242C013968F
:1012C000FC93EE931297ED01499159919E01240FE1
:1012D000351FE217F30771F480819181840F951F08
:1012E000029611969C938E938281938113969C9380
:1012F0008E931297E0E0F0E0D80112968D919C91C8
:101300001397009719F0F8018C01F6CF8D919C91FD
:1013100098012E5F3F4F820F931F2091340230912E
:1013200035022817390769F4309729F410923702EB
:101330001092360202C0138212821093350200937B
:101340003402DF91CF911F910F91089581E090E0D9
:0A135000F8940C94AB09F894FFCF59
:10135A00000038028000000000007C02E50114024F
:10136A00C3024502230237020D0A005072657373E5
:10137A0020627574746F6E20746F2063616C696289
:10138A0072617465206D6178696D756D2076616C26
:10139A00756500507265737320627574746F6E2080
:1013AA00746F2063616C696272617465206D696E25
:1013BA00696D756D2076616C75650043616C696253
:1013CA00726174696F6E2073756363657366756C99
:0213DA00000011
:00000001FF
