:100000000C9462000C948A000C948A000C948A0070
:100010000C948A000C948A000C948A000C948A0038
:100020000C948A000C948A000C948A000C948A0028
:100030000C948A000C948A000C948A000C948A0018
:100040000C944D050C948A000C94BD050C949705F6
:100050000C948A000C948A000C948A000C948A00F8
:100060000C948A000C948A000000000024002700F1
:100070002A0000000000250028002B0000000000DE
:1000800023002600290004040404040404040202DA
:100090000202020203030303030301020408102007
:1000A0004080010204081020010204081020000012
:1000B0000008000201000003040700000000000027
:1000C0000000EF0511241FBECFEFD8E0DEBFCDBF8B
:1000D00011E0A0E0B1E0E2E5F2E102C005900D928E
:1000E000AC34B107D9F722E0ACE4B1E001C01D9215
:1000F000A430B207E1F710E0C2E6D0E004C02197D7
:10010000FE010E94EF07C136D107C9F70E944D06D4
:100110000C9427090C94000040E250E020E030E00D
:100120006A5F7F4F660F771FDC01A60FB71F9C9198
:100130009E3008F09E509770906490937C00809160
:100140007A00806480937A0080917A0086FDFCCFEB
:1001500080917800E091790090E09E2B280F391F64
:100160004150510921F7C90137FD4F9625E095957A
:1001700087952A95E1F70895833081F028F481303E
:1001800099F08230A1F008958730A9F08830B9F055
:100190008430D1F4809180008F7D03C080918000F5
:1001A0008F7780938000089584B58F7702C084B5DF
:1001B0008F7D84BD08958091B0008F7703C08091BA
:1001C000B0008F7D8093B0000895CF93DF93282FE8
:1001D00030E0F901E255FF4F8491F901E656FF4FF7
:1001E000D491F901EA57FF4FC491CC2391F08111CA
:1001F0000E94BC00EC2FF0E0EE0FFF1FE458FF4F11
:10020000A591B491EC91ED2381E090E021F480E0A0
:1002100002C080E090E0DF91CF9108951F93CF93CB
:10022000DF93282F30E0F901E255FF4F8491F90167
:10023000E656FF4FD491F901EA57FF4FC491CC2302
:10024000C9F0162F81110E94BC00EC2FF0E0EE0FD8
:10025000FF1FEE58FF4FA591B4918FB7F89411117D
:1002600005C09C91ED2FE095E92302C0EC91ED2BA8
:10027000EC938FBFDF91CF911F910895CF93DF93C0
:1002800090E0FC01E656FF4F2491FC01EA57FF4F36
:100290008491882361F190E0880F991FFC01E8594F
:1002A000FF4FC591D491FC01EE58FF4FA591B49139
:1002B000611109C09FB7F8948881209582238883B3
:1002C000EC912E230BC0623061F49FB7F894388113
:1002D000822F809583238883EC912E2B2C939FBFB4
:1002E00006C08FB7F894E8812E2B28838FBFDF914B
:1002F000CF9108951F93CF93DF93182FEB0161E007
:100300000E943E01209711F460E004C0CF3FD10568
:1003100039F461E0812FDF91CF911F910C940E0190
:10032000E12FF0E0E255FF4FE491E330F9F048F4BB
:10033000E130B9F0E230A1F584B5806284BDC8BD7A
:1003400034C0E730E9F0E83019F1E43049F5809144
:100350008000806280938000D0938B00C0938A00DD
:1003600024C084B5806884BDC7BD1FC08091800053
:10037000806880938000D0938900C093880015C066
:100380008091B00080688093B000C093B3000DC02E
:100390008091B00080628093B000C093B40005C02B
:1003A000C038D1050CF0B5CFAFCFDF91CF911F9101
:1003B0000895CF92DF92EF92FF920F931F93CF9306
:1003C000DF936C017A018B01C0E0D0E0CE15DF0530
:1003D00089F0D8016D918D01D601ED91FC910190CC
:1003E000F081E02DC6010995892B11F47E0102C030
:1003F0002196ECCFC701DF91CF911F910F91FF9014
:10040000EF90DF90CF900895089580E090E00895F8
:10041000FC01538D448D252F30E0842F90E0821B0A
:10042000930B541710F0CF96089501970895FC018F
:10043000918D828D981761F0828DDF01A80FB11D1B
:100440005D968C91928D9F5F9F73928F90E008953F
:100450008FEF9FEF0895FC01918D828D981731F0F9
:10046000828DE80FF11D858D90E008958FEF9FEF4D
:100470000895FC01918D228D892F90E0805C9F4F23
:10048000821B91098F739927089581E691E00E945C
:10049000390221E0892B09F420E0822F0895FC0124
:1004A000848DDF01A80FB11DA35ABF4F2C91848DFD
:1004B00090E001968F739927848FA689B7892C9332
:1004C000A089B1898C9180648C93938D848D9813CD
:1004D00006C00288F389E02D80818F7D8083089596
:1004E000EF92FF920F931F93CF93DF93EC0181E084
:1004F000888F9B8D8C8D981305C0E889F989808140
:1005000085FD24C0F62E0B8D10E00F5F1F4F0F737B
:100510001127E02E8C8DE8120CC00FB607FCFACF25
:10052000E889F989808185FFF5CFCE010E944F02CD
:10053000F1CF8B8DFE01E80FF11DE35AFF4FF082E2
:100540000B8FEA89FB898081806207C0EE89FF8971
:100550006083E889F98980818064808381E090E00C
:10056000DF91CF911F910F91FF90EF900895CF935E
:10057000DF93EC01888D8823C9F0EA89FB898081AB
:1005800085FD05C0A889B9898C9186FD0FC00FB67D
:1005900007FCF5CF808185FFF2CFA889B9898C91BE
:1005A00085FFEDCFCE010E944F02E7CFDF91CF91C3
:1005B000089580E090E0892B29F00E944502811186
:1005C0000C94000008950F931F93CF938C01C0E00B
:1005D000F801828D0E94E500892B11F0C1E0F8CF6F
:1005E000CC23B1F3CF911F910F9108952F923F9299
:1005F0004F925F926F927F928F929F92AF92BF9233
:10060000CF92DF92EF92FF920F931F93CF93DF93DE
:10061000CDB7DEB727970FB6F894DEBF0FBECDBFBC
:100620004C015C018CE1A80EB11C00E010E003302D
:100630001105B9F1F501C080D1800D2C000CEE0838
:10064000FF0846845784052C000C66087708B8011B
:10065000C4010E948C0022242394312C2C0E3D1EB8
:10066000200E311E092E000CAA0BBB0B9C01AD0104
:100670002419350946095709A4E6B0E00E94B307DA
:10068000A701960124193509460957090E949407C4
:1006900081E022333105410551050CF080E0F10184
:1006A00080830F5F1F4FF2E0AF0EB11C07301105C2
:1006B00009F0BDCFF40182890E94E500CE010196C8
:1006C00027960FB6F894DEBF0FBECDBFDF91CF9156
:1006D0001F910F91FF90EF90DF90CF90BF90AF9060
:1006E0009F908F907F906F905F904F903F902F9052
:1006F0000895CF93DF93EC0160E08A850E940E019C
:1007000060E08E810E940E0160E08885DF91CF91CC
:100710000C940E01CF93DF93EC0160E088810E947E
:100720000E0160E08A810E940E0160E08C81DF9101
:10073000CF910C940E010F931F93CF93DF93EC0195
:100740008B0161E08A850E940E0160E08E810E942B
:100750000E01B8018885DF91CF911F910F910C9404
:100760007A010F931F93CF93DF93EC018B0161E02C
:1007700088810E940E0160E08A810E940E01B8010A
:100780008C81DF91CF911F910F910C947A0100978A
:1007900069F0FC0101900020E9F73197AF01481B97
:1007A000590BBC0181E691E00C94D90180E090E006
:1007B0000895CF93DF930E94C703EC0188E191E095
:1007C0000E94C7038C0F9D1FDF91CF9108950E9457
:1007D0002209CF92DF92EF92FF920F931F93CF9354
:1007E000DF93C090FE01D090FF01C6010E94F60287
:1007F0007C019093570180935601209154013091D0
:100800005501FC01428193818481411107C09923E4
:1008100089F08823A1F0C1E0D0E015C0992329F028
:1008200081110DC0CFEFDFEF0EC081110BC0CEEFF5
:10083000DFEF09C0882331F0C2E0D0E004C0C0E09F
:10084000D0E001C0E901D0935301C093520186E981
:100850008C9FA0018D9F500D1124CE01821B930B04
:100860009C016CE3629FC001639F900D1124840F73
:10087000951F8C0108531F4F68EC70E0681B790BC3
:10088000693C710514F068EC70E0093C110514F046
:1008900008EC10E077FF02C060E070E017FF02C0D4
:1008A00000E010E0C6016115710519F00E949B037C
:1008B00002C00E9479030115110529F0B801C60193
:1008C0000E94B10303C0C6010E948A03D093550160
:1008D000C0935401F7012081222389F0E0914C015B
:1008E000F0914D01808181110AC080914E0190915B
:1008F0004F01019690934F0180934E0114C0F70170
:100900008681882381F0E0914C01F0914D01868130
:10091000811109C0809150019091510101969093ED
:10092000510180935001F7018181882319F095814D
:10093000911104C0F0924D01E0924C0140914E01A2
:1009400050914F01141615060CF048C0222309F4EB
:1009500045C0882309F442C08BE191E00E94D9038D
:10096000C091FE01D091FF0168EC70E0CE010E94C1
:100970009B03CE010E948A030091560110915701FA
:1009800010934D0100934C01CE010E94F60290930A
:10099000570180935601F80125812111EDCFFC010B
:1009A0008581882349F380914E0190914F010197F1
:1009B00090934F0180934E01CE010E947903CE01A6
:1009C0000E948A030E94E9038EEF9FEF90935301E8
:1009D000809352019093550180935401809150016E
:1009E00090915101181619060CF04EC0E091560175
:1009F000F09157018681882309F446C085818823B8
:100A000009F442C08FE191E00E94D903C091FE0138
:100A1000D091FF01CE010E94790368EC70E0CE0115
:100A20000E94B103009156011091570110934D019E
:100A300000934C01CE010E94F602909357018093DF
:100A40005601F80122812111EDCFFC01828188231A
:100A500049F3809150019091510101979093510178
:100A600080935001CE010E947903CE010E948A0337
:100A70000E94E90382E090E0909353018093520139
:100A80009093550180935401DF91CF911F910F9165
:100A9000FF90EF90DF90CF9008951F920F920FB6C6
:100AA0000F9211242F933F938F939F93AF93BF93F4
:100AB00080915D0190915E01A0915F01B091600114
:100AC00030915C0123E0230F2D3720F40196A11D06
:100AD000B11D05C026E8230F0296A11DB11D20936C
:100AE0005C0180935D0190935E01A0935F01B093E0
:100AF00060018091580190915901A0915A01B091E3
:100B00005B010196A11DB11D80935801909359017D
:100B1000A0935A01B0935B01BF91AF919F918F91C8
:100B20003F912F910F900FBE0F901F9018951F921D
:100B30000F920FB60F9211242F933F934F935F9311
:100B40006F937F938F939F93AF93BF93EF93FF9395
:100B500081E691E00E944F02FF91EF91BF91AF912A
:100B60009F918F917F916F915F914F913F912F91C5
:100B70000F900FBE0F901F9018951F920F920FB6F7
:100B80000F9211242F938F939F93EF93FF93E091F4
:100B90007101F09172018081E0917701F09178010B
:100BA00082FD12C0908180917A018F5F8F732091B6
:100BB0007B01821751F0E0917A01F0E0EF59FE4F8E
:100BC000958F80937A0101C08081FF91EF919F9171
:100BD0008F912F910F900FBE0F901F901895E1E607
:100BE000F1E01382128288EE93E0A0E0B0E084830B
:100BF0009583A683B7838AE091E09183808385EC17
:100C000090E09587848784EC90E09787868780ECD6
:100C100090E0918B808B81EC90E0938B828B82ECC7
:100C200090E0958B848B86EC90E0978B868B118E71
:100C3000128E138E148E88E390E00E94F507FC015B
:100C40008BE090E0918380838AE090E093838283BD
:100C500086E090E09583848385E090E097838683A7
:100C600023E030E03187208742E050E0538742871D
:100C7000358B248B24E030E0378B268B918F808F4F
:100C800088E090E0938B828B8CE090E0938F828F52
:100C9000F093FF01E093FE010895CF93DF93CDB76A
:100CA000DEB7A1970FB6F894DEBF0FBECDBF789424
:100CB00084B5826084BD84B5816084BD85B5826061
:100CC00085BD85B5816085BD80916E008160809312
:100CD0006E0010928100809181008260809381007B
:100CE000809181008160809381008091800081608B
:100CF000809380008091B10084608093B1008091E6
:100D0000B00081608093B00080917A00846080930D
:100D10007A0080917A00826080937A0080917A00D4
:100D2000816080937A0080917A00806880937A0055
:100D30001092C1000091FE011091FF01E09171013C
:100D4000F091720182E08083E0916D01F0916E017B
:100D50001082E0916F01F09170018FEC808310920E
:100D60007901E0917501F091760186E08083E09150
:100D70007301F0917401808180618083E09173013F
:100D8000F0917401808188608083E0917301F0911B
:100D90007401808180688083E0917301F091740117
:100DA00080818F7D808361E0F80180810E943E0117
:100DB00061E0F80182810E943E0161E0F8018481D6
:100DC0000E943E0161E0F80186810E943E0161E0DF
:100DD000F80180850E943E0161E0F80182850E9451
:100DE0003E0160E0F80182890E943E0160E0F80166
:100DF000828D0E943E0183E291E00E94D903F801B6
:100E00007C9668018AE2C80ED11C8FEF93E0978729
:100E1000868711921192EC15FD05C9F7C8010E9451
:100E2000E3025801E12CF12CE3E0EE16F10491F01D
:100E3000B701C8010E948C00F501248D358D28175B
:100E400039072CF4B701C8010E948C009C01F50100
:100E5000358F248FFFEFEF1AFF0A82E0A80EB11C36
:100E6000E7E0EE16F10401F7C8010E94E302E12C6D
:100E7000F12CF3E0EF16F10491F0B701C8010E94E4
:100E80008C00F60120813181821793072CF4B70181
:100E9000C8010E948C009C01F60131832083FFEF82
:100EA000EF1AFF0A82E0C80ED11CE7E0EE16F1044B
:100EB00001F78DE391E00E94D9038091FE019091AA
:100EC000FF010E94F6028C017C01F7E0EF0EF11C9D
:100ED0008AE0882E912CA12CB12CF80161918F0110
:100EE00019A270E080E090E0A50194010E94BE0785
:100EF000605D68A3CE0180960E94C70388E191E0FF
:100F00000E94C7030E151F0541F788E191E00E947A
:100F1000C7038091FE019091FF010E94E3020E94AD
:100F2000E9030E94D902FBCF052E97FB1EF4009423
:100F30000E94AB0757FD07D00E94BE0707FC03D0F5
:100F40004EF40C94AB0750954095309521953F4F4A
:100F50004F4F5F4F089590958095709561957F4FA5
:100F60008F4F9F4F08950E94E007A59F900DB49F5B
:100F7000900DA49F800D911D11240895A1E21A2EB9
:100F8000AA1BBB1BFD010DC0AA1FBB1FEE1FFF1F2D
:100F9000A217B307E407F50720F0A21BB30BE40B7D
:100FA000F50B661F771F881F991F1A9469F76095C4
:100FB0007095809590959B01AC01BD01CF0108957E
:100FC000A29FB001B39FC001A39F700D811D11248A
:100FD000911DB29F700D811D1124911D0895EE0F7A
:100FE000FF1F0590F491E02D0994CF93DF93823099
:100FF000910510F482E090E0E0910202F09103028A
:1010000020E030E0C0E0D0E0309711F14081518124
:1010100048175907C0F04817590761F48281938136
:10102000209719F09B838A832BC0909303028093AF
:10103000020226C02115310519F04217530718F492
:101040009A01BE01DF01EF010280F381E02DDCCFC8
:101050002115310509F1281B390B2430310590F495
:1010600012968D919C9113976115710521F0FB01EA
:101070009383828304C09093030280930202FD0154
:10108000329644C0FD01E20FF31F819391932250E9
:1010900031092D933C933AC0209100023091010216
:1010A000232B41F42091020130910301309301027E
:1010B000209300022091000130910101211531059A
:1010C00041F42DB73EB74091040150910501241B16
:1010D000350BE0910002F0910102E217F307A0F452
:1010E0002E1B3F0B2817390778F0AC014E5F5F4F7E
:1010F0002417350748F04E0F5F1F509301024093AD
:1011000000028193919302C0E0E0F0E0CF01DF9113
:10111000CF9108950F931F93CF93DF93009709F416
:101120008CC0FC013297138212820091020210914E
:1011300003020115110581F420813181820F931F73
:1011400020910002309101022817390779F5F093B8
:101150000102E093000271C0D80140E050E0AE17F8
:10116000BF0750F412962D913C911397AD012115B4
:10117000310509F1D901F3CF9D01DA0133832283CF
:1011800060817181860F971F8217930769F4EC01C4
:1011900028813981260F371F2E5F3F4F31832083EF
:1011A0008A819B8193838283452B29F4F0930302E8
:1011B000E093020242C01396FC93EE931297ED0166
:1011C000499159919E01240F351FE217F30771F4DD
:1011D00080819181840F951F029611969C938E9326
:1011E0008281938113969C938E931297E0E0F0E0B6
:1011F000D80112968D919C911397009719F0F801E0
:101200008C01F6CF8D919C9198012E5F3F4F820FFC
:10121000931F20910002309101022817390769F4C9
:10122000309729F4109203021092020202C0138236
:1012300012821093010200930002DF91CF911F915F
:101240000F91089581E090E0F8940C942709F894A8
:02125000FFCFCE
:10125200000004028000000000007002D9010802B0
:10126200B702390217022B020D0A0074206C0074B7
:10127200207200507265737320627574746F6E20F1
:10128200746F2063616C6962726174650043616CA2
:0C1292006962726174696F6E206F6B00FE
:00000001FF
